{
  "contractName": "AssignShield",
  "abi": [
    {
      "inputs": [
        {
          "internalType": "address",
          "name": "verifierAddress",
          "type": "address"
        },
        {
          "internalType": "uint256[][]",
          "name": "vk",
          "type": "uint256[][]"
        }
      ],
      "stateMutability": "nonpayable",
      "type": "constructor"
    },
    {
      "anonymous": false,
      "inputs": [
        {
          "indexed": false,
          "internalType": "uint256",
          "name": "leafIndex",
          "type": "uint256"
        },
        {
          "indexed": false,
          "internalType": "uint256",
          "name": "leafValue",
          "type": "uint256"
        },
        {
          "indexed": false,
          "internalType": "uint256",
          "name": "root",
          "type": "uint256"
        }
      ],
      "name": "NewLeaf",
      "type": "event"
    },
    {
      "anonymous": false,
      "inputs": [
        {
          "indexed": false,
          "internalType": "uint256",
          "name": "minLeafIndex",
          "type": "uint256"
        },
        {
          "indexed": false,
          "internalType": "uint256[]",
          "name": "leafValues",
          "type": "uint256[]"
        },
        {
          "indexed": false,
          "internalType": "uint256",
          "name": "root",
          "type": "uint256"
        }
      ],
      "name": "NewLeaves",
      "type": "event"
    },
    {
      "inputs": [
        {
          "internalType": "uint256",
          "name": "in_x",
          "type": "uint256"
        },
        {
          "internalType": "uint256",
          "name": "in_k",
          "type": "uint256"
        }
      ],
      "name": "Encipher",
      "outputs": [
        {
          "internalType": "uint256",
          "name": "out_x",
          "type": "uint256"
        }
      ],
      "stateMutability": "pure",
      "type": "function",
      "constant": true
    },
    {
      "inputs": [
        {
          "internalType": "uint256[]",
          "name": "in_msgs",
          "type": "uint256[]"
        },
        {
          "internalType": "uint256",
          "name": "in_key",
          "type": "uint256"
        }
      ],
      "name": "Hash",
      "outputs": [
        {
          "internalType": "uint256",
          "name": "",
          "type": "uint256"
        }
      ],
      "stateMutability": "pure",
      "type": "function",
      "constant": true
    },
    {
      "inputs": [],
      "name": "Initial_NullifierRoot",
      "outputs": [
        {
          "internalType": "uint256",
          "name": "",
          "type": "uint256"
        }
      ],
      "stateMutability": "view",
      "type": "function",
      "constant": true
    },
    {
      "inputs": [
        {
          "internalType": "uint256",
          "name": "",
          "type": "uint256"
        }
      ],
      "name": "commitmentRoots",
      "outputs": [
        {
          "internalType": "uint256",
          "name": "",
          "type": "uint256"
        }
      ],
      "stateMutability": "view",
      "type": "function",
      "constant": true
    },
    {
      "inputs": [
        {
          "internalType": "uint256",
          "name": "",
          "type": "uint256"
        }
      ],
      "name": "frontier",
      "outputs": [
        {
          "internalType": "uint256",
          "name": "",
          "type": "uint256"
        }
      ],
      "stateMutability": "view",
      "type": "function",
      "constant": true
    },
    {
      "inputs": [
        {
          "internalType": "uint256",
          "name": "leafIndex",
          "type": "uint256"
        }
      ],
      "name": "getFrontierSlot",
      "outputs": [
        {
          "internalType": "uint256",
          "name": "slot",
          "type": "uint256"
        }
      ],
      "stateMutability": "pure",
      "type": "function",
      "constant": true
    },
    {
      "inputs": [
        {
          "internalType": "uint256",
          "name": "leafValue",
          "type": "uint256"
        }
      ],
      "name": "insertLeaf",
      "outputs": [
        {
          "internalType": "uint256",
          "name": "root",
          "type": "uint256"
        }
      ],
      "stateMutability": "nonpayable",
      "type": "function"
    },
    {
      "inputs": [
        {
          "internalType": "uint256[]",
          "name": "leafValues",
          "type": "uint256[]"
        }
      ],
      "name": "insertLeaves",
      "outputs": [
        {
          "internalType": "uint256",
          "name": "root",
          "type": "uint256"
        }
      ],
      "stateMutability": "nonpayable",
      "type": "function"
    },
    {
      "inputs": [],
      "name": "latestRoot",
      "outputs": [
        {
          "internalType": "uint256",
          "name": "",
          "type": "uint256"
        }
      ],
      "stateMutability": "view",
      "type": "function",
      "constant": true
    },
    {
      "inputs": [],
      "name": "leafCount",
      "outputs": [
        {
          "internalType": "uint256",
          "name": "",
          "type": "uint256"
        }
      ],
      "stateMutability": "view",
      "type": "function",
      "constant": true
    },
    {
      "inputs": [
        {
          "internalType": "uint256[]",
          "name": "in_msgs",
          "type": "uint256[]"
        }
      ],
      "name": "mimcHash",
      "outputs": [
        {
          "internalType": "uint256",
          "name": "",
          "type": "uint256"
        }
      ],
      "stateMutability": "pure",
      "type": "function",
      "constant": true
    },
    {
      "inputs": [],
      "name": "newNullifierRoot",
      "outputs": [
        {
          "internalType": "uint256",
          "name": "",
          "type": "uint256"
        }
      ],
      "stateMutability": "view",
      "type": "function",
      "constant": true
    },
    {
      "inputs": [],
      "name": "treeHeight",
      "outputs": [
        {
          "internalType": "uint256",
          "name": "",
          "type": "uint256"
        }
      ],
      "stateMutability": "view",
      "type": "function",
      "constant": true
    },
    {
      "inputs": [],
      "name": "treeWidth",
      "outputs": [
        {
          "internalType": "uint256",
          "name": "",
          "type": "uint256"
        }
      ],
      "stateMutability": "view",
      "type": "function",
      "constant": true
    },
    {
      "inputs": [
        {
          "internalType": "uint256",
          "name": "",
          "type": "uint256"
        },
        {
          "internalType": "uint256",
          "name": "",
          "type": "uint256"
        }
      ],
      "name": "vks",
      "outputs": [
        {
          "internalType": "uint256",
          "name": "",
          "type": "uint256"
        }
      ],
      "stateMutability": "view",
      "type": "function",
      "constant": true
    },
    {
      "inputs": [],
      "name": "zero",
      "outputs": [
        {
          "internalType": "uint256",
          "name": "",
          "type": "uint256"
        }
      ],
      "stateMutability": "view",
      "type": "function",
      "constant": true
    },
    {
      "inputs": [
        {
          "internalType": "address",
          "name": "",
          "type": "address"
        }
      ],
      "name": "zkpPublicKeys",
      "outputs": [
        {
          "internalType": "uint256",
          "name": "",
          "type": "uint256"
        }
      ],
      "stateMutability": "view",
      "type": "function",
      "constant": true
    },
    {
      "inputs": [
        {
          "internalType": "uint256",
          "name": "pk",
          "type": "uint256"
        }
      ],
      "name": "registerZKPPublicKey",
      "outputs": [],
      "stateMutability": "nonpayable",
      "type": "function"
    },
    {
      "inputs": [
        {
          "internalType": "uint256",
          "name": "nullifierRoot",
          "type": "uint256"
        },
        {
          "internalType": "uint256",
          "name": "latestNullifierRoot",
          "type": "uint256"
        },
        {
          "internalType": "uint256[]",
          "name": "newNullifiers",
          "type": "uint256[]"
        },
        {
          "internalType": "uint256",
          "name": "commitmentRoot",
          "type": "uint256"
        },
        {
          "internalType": "uint256[]",
          "name": "newCommitments",
          "type": "uint256[]"
        },
        {
          "internalType": "uint256[]",
          "name": "proof",
          "type": "uint256[]"
        }
      ],
      "name": "assign",
      "outputs": [],
      "stateMutability": "nonpayable",
      "type": "function"
    }
  ],
  "bytecode": "0x608060405260008055602060015560015460026200001e91906200046d565b6002553480156200002e57600080fd5b506040516200306038038062003060833981810160405281019062000054919062000326565b81602560006101000a81548173ffffffffffffffffffffffffffffffffffffffff021916908373ffffffffffffffffffffffffffffffffffffffff16021790555060005b81518110156200012357818181518110620000dc577f4e487b7100000000000000000000000000000000000000000000000000000000600052603260045260246000fd5b60200260200101516026600083815260200190815260200160002090805190602001906200010c92919062000153565b5080806200011a90620005e8565b91505062000098565b507f2f68a1c58e257e42a17a6c61dff5551ed560b9922ab119d5ac8e184c9734ead96027819055505050620006d5565b82805482825590600052602060002090810192821562000192579160200282015b828111156200019157825182559160200191906001019062000174565b5b509050620001a19190620001a5565b5090565b5b80821115620001c0576000816000905550600101620001a6565b5090565b6000620001db620001d584620003b4565b62000380565b9050808382526020820190508260005b858110156200021f5781518501620002048882620002e2565b845260208401935060208301925050600181019050620001eb565b5050509392505050565b6000620002406200023a84620003e3565b62000380565b905080838252602082019050828560208602820111156200026057600080fd5b60005b858110156200029457816200027988826200030f565b84526020840193506020830192505060018101905062000263565b5050509392505050565b600081519050620002af81620006a1565b92915050565b600082601f830112620002c757600080fd5b8151620002d9848260208601620001c4565b91505092915050565b600082601f830112620002f457600080fd5b81516200030684826020860162000229565b91505092915050565b6000815190506200032081620006bb565b92915050565b600080604083850312156200033a57600080fd5b60006200034a858286016200029e565b925050602083015167ffffffffffffffff8111156200036857600080fd5b6200037685828601620002b5565b9150509250929050565b6000604051905081810181811067ffffffffffffffff82111715620003aa57620003a962000665565b5b8060405250919050565b600067ffffffffffffffff821115620003d257620003d162000665565b5b602082029050602081019050919050565b600067ffffffffffffffff82111562000401576200040062000665565b5b602082029050602081019050919050565b6000808291508390505b600185111562000464578086048111156200043c576200043b62000636565b5b60018516156200044c5780820291505b80810290506200045c8562000694565b94506200041c565b94509492505050565b60006200047a82620005de565b91506200048783620005de565b9250620004b67fffffffffffffffffffffffffffffffffffffffffffffffffffffffffffffffff8484620004be565b905092915050565b600082620004d05760019050620005a3565b81620004e05760009050620005a3565b8160018114620004f9576002811462000504576200053a565b6001915050620005a3565b60ff84111562000519576200051862000636565b5b8360020a91508482111562000533576200053262000636565b5b50620005a3565b5060208310610133831016604e8410600b8410161715620005745782820a9050838111156200056e576200056d62000636565b5b620005a3565b62000583848484600162000412565b925090508184048111156200059d576200059c62000636565b5b81810290505b9392505050565b6000620005b782620005be565b9050919050565b600073ffffffffffffffffffffffffffffffffffffffff82169050919050565b6000819050919050565b6000620005f582620005de565b91507fffffffffffffffffffffffffffffffffffffffffffffffffffffffffffffffff8214156200062b576200062a62000636565b5b600182019050919050565b7f4e487b7100000000000000000000000000000000000000000000000000000000600052601160045260246000fd5b7f4e487b7100000000000000000000000000000000000000000000000000000000600052604160045260246000fd5b60008160011c9050919050565b620006ac81620005aa565b8114620006b857600080fd5b50565b620006c681620005de565b8114620006d257600080fd5b50565b61297b80620006e56000396000f3fe608060405234801561001057600080fd5b50600436106101215760003560e01c80639636b3fd116100ad578063b720243411610071578063b720243414610344578063b74c314814610374578063bc1b392d146103a4578063cae8510d146103c2578063d7b0fef1146103f257610121565b80639636b3fd1461027a57806396d8d8201461029857806397f3e011146102c8578063a8f4324e146102e4578063b6a1b7f61461031457610121565b80632a3a8183116100f45780632a3a8183146101c257806330e69fc3146101f25780633cfbac29146102105780636e0c3fee1461022c57806376c601b11461025c57610121565b806301e3e9151461012657806305bb4c40146101445780630fa16e3814610162578063176764b514610192575b600080fd5b61012e610410565b60405161013b9190612509565b60405180910390f35b61014c610416565b6040516101599190612509565b60405180910390f35b61017c60048036038101906101779190611f5f565b61043a565b6040516101899190612509565b60405180910390f35b6101ac60048036038101906101a79190611f1e565b610486565b6040516101b99190612509565b60405180910390f35b6101dc60048036038101906101d79190611fdc565b610dd3565b6040516101e99190612509565b60405180910390f35b6101fa610e63565b6040516102079190612509565b60405180910390f35b61022a60048036038101906102259190612041565b610e69565b005b61024660048036038101906102419190611fdc565b611037565b6040516102539190612509565b60405180910390f35b610264611052565b6040516102719190612509565b60405180910390f35b610282611058565b60405161028f9190612509565b60405180910390f35b6102b260048036038101906102ad9190612005565b61105e565b6040516102bf9190612509565b60405180910390f35b6102e260048036038101906102dd9190611fdc565b6110aa565b005b6102fe60048036038101906102f99190612005565b6110f1565b60405161030b9190612509565b60405180910390f35b61032e60048036038101906103299190611fdc565b611122565b60405161033b9190612509565b60405180910390f35b61035e60048036038101906103599190611fdc565b61113a565b60405161036b9190612509565b60405180910390f35b61038e60048036038101906103899190611ef5565b61163f565b60405161039b9190612509565b60405180910390f35b6103ac611657565b6040516103b99190612509565b60405180910390f35b6103dc60048036038101906103d79190611f1e565b61165d565b6040516103e99190612509565b60405180910390f35b6103fa611671565b6040516104079190612509565b60405180910390f35b60015481565b7f2f68a1c58e257e42a17a6c61dff5551ed560b9922ab119d5ac8e184c9734ead981565b600080636d696d6360e01b905061047d84848360405160200161045d9190612420565b6040516020818303038152906040528051906020012060001c605b611677565b91505092915050565b60008082519050600354600254116104d3576040517f08c379a00000000000000000000000000000000000000000000000000000000081526004016104ca90612489565b60405180910390fd5b6003546002546104e391906126f4565b8111156105435760006003546002546104fc91906126f4565b8261050791906126f4565b905060005b8181101561052e57600185510385528080610526906127cf565b91505061050c565b5060035460025461053f91906126f4565b9150505b6000806000806000600267ffffffffffffffff81111561058c577f4e487b7100000000000000000000000000000000000000000000000000000000600052604160045260246000fd5b6040519080825280602002602001820160405280156105ba5781602001602082028036833780820191505090505b5090506000600167ffffffffffffffff811115610600577f4e487b7100000000000000000000000000000000000000000000000000000000600052604160045260246000fd5b60405190808252806020026020018201604052801561062e5781602001602082028036833780820191505090505b509050600060035490505b87600354610647919061266d565b811015610a5f57896003548261065d91906126f4565b81518110610694577f4e487b7100000000000000000000000000000000000000000000000000000000600052603260045260246000fd5b602002602001015193506001600254826106ae919061266d565b6106b891906126f4565b95506106c381610dd3565b96506000871415610713578360048860218110610709577f4e487b7100000000000000000000000000000000000000000000000000000000600052603260045260246000fd5b0181905550610a4c565b6000600190505b878111610a0a5760006002886107309190612822565b14156108c157600460018261074591906126f4565b6021811061077c577f4e487b7100000000000000000000000000000000000000000000000000000000600052603260045260246000fd5b0154846000815181106107b8577f4e487b7100000000000000000000000000000000000000000000000000000000600052603260045260246000fd5b60200260200101818152505084846001815181106107ff577f4e487b7100000000000000000000000000000000000000000000000000000000600052603260045260246000fd5b6020026020010181815250506108148461165d565b8360008151811061084e577f4e487b7100000000000000000000000000000000000000000000000000000000600052603260045260246000fd5b60200260200101818152505082600081518110610894577f4e487b7100000000000000000000000000000000000000000000000000000000600052603260045260246000fd5b6020026020010151945086955060026001886108b091906126f4565b6108ba91906126c3565b96506109f7565b84846000815181106108fc577f4e487b7100000000000000000000000000000000000000000000000000000000600052603260045260246000fd5b60200260200101818152505060005484600181518110610945577f4e487b7100000000000000000000000000000000000000000000000000000000600052603260045260246000fd5b60200260200101818152505061095a8461165d565b83600081518110610994577f4e487b7100000000000000000000000000000000000000000000000000000000600052603260045260246000fd5b602002602001018181525050826000815181106109da577f4e487b7100000000000000000000000000000000000000000000000000000000600052603260045260246000fd5b602002602001015194508695506002876109f491906126c3565b96505b8080610a02906127cf565b91505061071a565b508360048860218110610a46577f4e487b7100000000000000000000000000000000000000000000000000000000600052603260045260246000fd5b01819055505b8080610a57906127cf565b915050610639565b506000600187610a6f919061266d565b90505b6001548111610d64576000600287610a8a9190612822565b1415610c1b576004600182610a9f91906126f4565b60218110610ad6577f4e487b7100000000000000000000000000000000000000000000000000000000600052603260045260246000fd5b015483600081518110610b12577f4e487b7100000000000000000000000000000000000000000000000000000000600052603260045260246000fd5b6020026020010181815250508383600181518110610b59577f4e487b7100000000000000000000000000000000000000000000000000000000600052603260045260246000fd5b602002602001018181525050610b6e8361165d565b82600081518110610ba8577f4e487b7100000000000000000000000000000000000000000000000000000000600052603260045260246000fd5b60200260200101818152505081600081518110610bee577f4e487b7100000000000000000000000000000000000000000000000000000000600052603260045260246000fd5b602002602001015193508594506002600187610c0a91906126f4565b610c1491906126c3565b9550610d51565b8383600081518110610c56577f4e487b7100000000000000000000000000000000000000000000000000000000600052603260045260246000fd5b60200260200101818152505060005483600181518110610c9f577f4e487b7100000000000000000000000000000000000000000000000000000000600052603260045260246000fd5b602002602001018181525050610cb48361165d565b82600081518110610cee577f4e487b7100000000000000000000000000000000000000000000000000000000600052603260045260246000fd5b60200260200101818152505081600081518110610d34577f4e487b7100000000000000000000000000000000000000000000000000000000600052603260045260246000fd5b60200260200101519350859450600286610d4e91906126c3565b95505b8080610d5c906127cf565b915050610a72565b508297508760001b60001c97507f39623a9bbcaf7943af164a1aee0fd809f7101d4d8c7727239dace363779587db6003548a8a604051610da693929190612524565b60405180910390a18660036000828254610dc0919061266d565b9250508190555050505050505050919050565b60006001600283610de49190612822565b1415610e5e576000600190506000600290506000600182901b90505b6000841415610e5a5760008183600188610e1a919061266d565b610e2491906126f4565b610e2e9190612822565b1415610e3c57829350610e55565b809150600181901b90508280610e51906127cf565b9350505b610e00565b5050505b919050565b60035481565b610e71611da0565b600167ffffffffffffffff811115610eb2577f4e487b7100000000000000000000000000000000000000000000000000000000600052604160045260246000fd5b604051908082528060200260200182016040528015610ee05781602001602082028036833780820191505090505b508160a0018190525060018160a00151600081518110610f29577f4e487b7100000000000000000000000000000000000000000000000000000000600052603260045260246000fd5b6020026020010181815250508981600001818152505088816020018181525050878780806020026020016040519081016040528093929190818152602001838360200280828437600081840152601f19601f82011690508083019250505050505050816040018190525085816060018181525050848480806020026020016040519081016040528093929190818152602001838360200280828437600081840152601f19601f82011690508083019250505050505050816080018190525061102b8383600080811115611025577f4e487b7100000000000000000000000000000000000000000000000000000000600052602160045260246000fd5b84611789565b50505050505050505050565b6004816021811061104757600080fd5b016000915090505481565b60025481565b60275481565b600080636d696d6360e01b90506110a18484836040516020016110819190612420565b6040516020818303038152906040528051906020012060001c605b611d14565b91505092915050565b80602a60003373ffffffffffffffffffffffffffffffffffffffff1673ffffffffffffffffffffffffffffffffffffffff1681526020019081526020016000208190555050565b6026602052816000526040600020818154811061110d57600080fd5b90600052602060002001600091509150505481565b60286020528060005260406000206000915090505481565b600060035460025411611182576040517f08c379a000000000000000000000000000000000000000000000000000000000815260040161117990612489565b60405180910390fd5b600061118f600354610dd3565b9050600060016002546003546111a5919061266d565b6111af91906126f4565b90506000808590506000600267ffffffffffffffff8111156111fa577f4e487b7100000000000000000000000000000000000000000000000000000000600052604160045260246000fd5b6040519080825280602002602001820160405280156112285781602001602082028036833780820191505090505b5090506000600167ffffffffffffffff81111561126e577f4e487b7100000000000000000000000000000000000000000000000000000000600052604160045260246000fd5b60405190808252806020026020018201604052801561129c5781602001602082028036833780820191505090505b50905060005b6001548110156115d257868114156112f55783600488602181106112ef577f4e487b7100000000000000000000000000000000000000000000000000000000600052603260045260246000fd5b01819055505b60006002876113049190612822565b14156114895760048160218110611344577f4e487b7100000000000000000000000000000000000000000000000000000000600052603260045260246000fd5b015483600081518110611380577f4e487b7100000000000000000000000000000000000000000000000000000000600052603260045260246000fd5b60200260200101818152505083836001815181106113c7577f4e487b7100000000000000000000000000000000000000000000000000000000600052603260045260246000fd5b6020026020010181815250506113dc8361165d565b82600081518110611416577f4e487b7100000000000000000000000000000000000000000000000000000000600052603260045260246000fd5b6020026020010181815250508160008151811061145c577f4e487b7100000000000000000000000000000000000000000000000000000000600052603260045260246000fd5b60200260200101519350859450600260018761147891906126f4565b61148291906126c3565b95506115bf565b83836000815181106114c4577f4e487b7100000000000000000000000000000000000000000000000000000000600052603260045260246000fd5b6020026020010181815250506000548360018151811061150d577f4e487b7100000000000000000000000000000000000000000000000000000000600052603260045260246000fd5b6020026020010181815250506115228361165d565b8260008151811061155c577f4e487b7100000000000000000000000000000000000000000000000000000000600052603260045260246000fd5b602002602001018181525050816000815181106115a2577f4e487b7100000000000000000000000000000000000000000000000000000000600052603260045260246000fd5b602002602001015193508594506002866115bc91906126c3565b95505b80806115ca906127cf565b9150506112a2565b508296508660001b60001c96507f522933b35bbca3f00d1a1ae17c09663f9286c4d868dc335a0ca99a970bc08784600354898960405161161493929190612562565b60405180910390a16003600081548092919061162f906127cf565b9190505550505050505050919050565b602a6020528060005260406000206000915090505481565b60005481565b600061166a82600061043a565b9050919050565b60295481565b60008084905060007f30644e72e131a029b85045b68181585d2833e84879b9709143e1f593f0000001905060005b875181101561177b57816116fb8983815181106116eb577f4e487b7100000000000000000000000000000000000000000000000000000000600052603260045260246000fd5b6020026020010151858989611d14565b838a8481518110611735577f4e487b7100000000000000000000000000000000000000000000000000000000600052603260045260246000fd5b60200260200101516117479190612822565b85611752919061266d565b61175c919061266d565b6117669190612822565b92508080611773906127cf565b9150506116a5565b829350505050949350505050565b60008160a001519050600082604001519050600083608001519050836060015160286000866060015181526020019081526020016000205414611801576040517f08c379a00000000000000000000000000000000000000000000000000000000081526004016117f8906124e9565b60405180910390fd5b600081516000845111611815576000611818565b60035b60ff1684518651611829919061266d565b611833919061266d565b61183d919061266d565b67ffffffffffffffff81111561187c577f4e487b7100000000000000000000000000000000000000000000000000000000600052604160045260246000fd5b6040519080825280602002602001820160405280156118aa5781602001602082028036833780820191505090505b5090506000808111156118e6577f4e487b7100000000000000000000000000000000000000000000000000000000600052602160045260246000fd5b861415611bb4576000856000015160275414611937576040517f08c379a000000000000000000000000000000000000000000000000000000000815260040161192e906124c9565b60405180910390fd5b8560000151828280611948906127cf565b935081518110611981577f4e487b7100000000000000000000000000000000000000000000000000000000600052603260045260246000fd5b602002602001018181525050856020015182828061199e906127cf565b9350815181106119d7577f4e487b7100000000000000000000000000000000000000000000000000000000600052603260045260246000fd5b60200260200101818152505083600081518110611a1d577f4e487b7100000000000000000000000000000000000000000000000000000000600052603260045260246000fd5b6020026020010151828280611a31906127cf565b935081518110611a6a577f4e487b7100000000000000000000000000000000000000000000000000000000600052603260045260246000fd5b6020026020010181815250508560600151828280611a87906127cf565b935081518110611ac0577f4e487b7100000000000000000000000000000000000000000000000000000000600052603260045260246000fd5b60200260200101818152505082600081518110611b06577f4e487b7100000000000000000000000000000000000000000000000000000000600052603260045260246000fd5b6020026020010151828280611b1a906127cf565b935081518110611b53577f4e487b7100000000000000000000000000000000000000000000000000000000600052603260045260246000fd5b6020026020010181815250506001828280611b6d906127cf565b935081518110611ba6577f4e487b7100000000000000000000000000000000000000000000000000000000600052603260045260246000fd5b602002602001018181525050505b6000602560009054906101000a900473ffffffffffffffffffffffffffffffffffffffff1673ffffffffffffffffffffffffffffffffffffffff166387d9d0238a8a85602660008d81526020019081526020016000206040518563ffffffff1660e01b8152600401611c29949392919061243b565b602060405180830381600087803b158015611c4357600080fd5b505af1158015611c57573d6000803e3d6000fd5b505050506040513d601f19601f82011682018060405250810190611c7b9190611fb3565b905080611cbd576040517f08c379a0000000000000000000000000000000000000000000000000000000008152600401611cb4906124a9565b60405180910390fd5b600083511115611cf357611cd083610486565b602981905550602954602860006029548152602001908152602001600020819055505b600084511115611d095785602001516027819055505b505050505050505050565b60006001821015611d2457600080fd5b604051602081016040528381527f30644e72e131a029b85045b68181585d2833e84879b9709143e1f593f0000001600080855b6000811115611d8d5760208520855283898587518d08089250838384099150838385868586098509099950600181039050611d57565b5082888a08945050505050949350505050565b6040518060c001604052806000815260200160008152602001606081526020016000815260200160608152602001606081525090565b6000611de9611de4846125ca565b612599565b90508083825260208201905082856020860282011115611e0857600080fd5b60005b85811015611e385781611e1e8882611ee0565b845260208401935060208301925050600181019050611e0b565b5050509392505050565b600081359050611e5181612900565b92915050565b60008083601f840112611e6957600080fd5b8235905067ffffffffffffffff811115611e8257600080fd5b602083019150836020820283011115611e9a57600080fd5b9250929050565b600082601f830112611eb257600080fd5b8135611ec2848260208601611dd6565b91505092915050565b600081519050611eda81612917565b92915050565b600081359050611eef8161292e565b92915050565b600060208284031215611f0757600080fd5b6000611f1584828501611e42565b91505092915050565b600060208284031215611f3057600080fd5b600082013567ffffffffffffffff811115611f4a57600080fd5b611f5684828501611ea1565b91505092915050565b60008060408385031215611f7257600080fd5b600083013567ffffffffffffffff811115611f8c57600080fd5b611f9885828601611ea1565b9250506020611fa985828601611ee0565b9150509250929050565b600060208284031215611fc557600080fd5b6000611fd384828501611ecb565b91505092915050565b600060208284031215611fee57600080fd5b6000611ffc84828501611ee0565b91505092915050565b6000806040838503121561201857600080fd5b600061202685828601611ee0565b925050602061203785828601611ee0565b9150509250929050565b600080600080600080600080600060c08a8c03121561205f57600080fd5b600061206d8c828d01611ee0565b995050602061207e8c828d01611ee0565b98505060408a013567ffffffffffffffff81111561209b57600080fd5b6120a78c828d01611e57565b975097505060606120ba8c828d01611ee0565b95505060808a013567ffffffffffffffff8111156120d757600080fd5b6120e38c828d01611e57565b945094505060a08a013567ffffffffffffffff81111561210257600080fd5b61210e8c828d01611e57565b92509250509295985092959850929598565b600061212c8383612402565b60208301905092915050565b6000612144838561264b565b93507f07ffffffffffffffffffffffffffffffffffffffffffffffffffffffffffffff83111561217357600080fd5b6020830292506121848385846127a6565b82840190509392505050565b600061219b8261261b565b6121a5818561264b565b93506121b0836125f6565b8060005b838110156121e15781516121c88882612120565b97506121d383612631565b9250506001810190506121b4565b5085935050505092915050565b60006121f982612626565b612203818561264b565b935061220e83612606565b8060005b8381101561224657612223826128e0565b61222d8882612120565b97506122388361263e565b925050600181019050612212565b5085935050505092915050565b61226461225f82612750565b612818565b82525050565b600061227760238361265c565b91507f5468657265206973206e6f207370616365206c65667420696e2074686520747260008301527f65652e00000000000000000000000000000000000000000000000000000000006020830152604082019050919050565b60006122dd602f8361265c565b91507f5468652070726f6f6620686173206e6f74206265656e2076657269666965642060008301527f62792074686520636f6e747261637400000000000000000000000000000000006020830152604082019050919050565b600061234360238361265c565b91507f496e707574204e756c6c6966696572526f6f7420646f6573206e6f742065786960008301527f73742e00000000000000000000000000000000000000000000000000000000006020830152604082019050919050565b60006123a960248361265c565b91507f496e70757420636f6d6d69746d656e74526f6f7420646f6573206e6f7420657860008301527f6973742e000000000000000000000000000000000000000000000000000000006020830152604082019050919050565b61240b8161279c565b82525050565b61241a8161279c565b82525050565b600061242c8284612253565b60048201915081905092915050565b60006060820190508181036000830152612456818688612138565b9050818103602083015261246a8185612190565b9050818103604083015261247e81846121ee565b905095945050505050565b600060208201905081810360008301526124a28161226a565b9050919050565b600060208201905081810360008301526124c2816122d0565b9050919050565b600060208201905081810360008301526124e281612336565b9050919050565b600060208201905081810360008301526125028161239c565b9050919050565b600060208201905061251e6000830184612411565b92915050565b60006060820190506125396000830186612411565b818103602083015261254b8185612190565b905061255a6040830184612411565b949350505050565b60006060820190506125776000830186612411565b6125846020830185612411565b6125916040830184612411565b949350505050565b6000604051905081810181811067ffffffffffffffff821117156125c0576125bf6128b1565b5b8060405250919050565b600067ffffffffffffffff8211156125e5576125e46128b1565b5b602082029050602081019050919050565b6000819050602082019050919050565b60008190508160005260206000209050919050565b600081519050919050565b600081549050919050565b6000602082019050919050565b6000600182019050919050565b600082825260208201905092915050565b600082825260208201905092915050565b60006126788261279c565b91506126838361279c565b9250827fffffffffffffffffffffffffffffffffffffffffffffffffffffffffffffffff038211156126b8576126b7612853565b5b828201905092915050565b60006126ce8261279c565b91506126d98361279c565b9250826126e9576126e8612882565b5b828204905092915050565b60006126ff8261279c565b915061270a8361279c565b92508282101561271d5761271c612853565b5b828203905092915050565b6000819050919050565b600061273d8261277c565b9050919050565b60008115159050919050565b60007fffffffff0000000000000000000000000000000000000000000000000000000082169050919050565b600073ffffffffffffffffffffffffffffffffffffffff82169050919050565b6000819050919050565b82818337600083830152505050565b60006127c86127c3836128f3565b612728565b9050919050565b60006127da8261279c565b91507fffffffffffffffffffffffffffffffffffffffffffffffffffffffffffffffff82141561280d5761280c612853565b5b600182019050919050565b6000819050919050565b600061282d8261279c565b91506128388361279c565b92508261284857612847612882565b5b828206905092915050565b7f4e487b7100000000000000000000000000000000000000000000000000000000600052601160045260246000fd5b7f4e487b7100000000000000000000000000000000000000000000000000000000600052601260045260246000fd5b7f4e487b7100000000000000000000000000000000000000000000000000000000600052604160045260246000fd5b60006128ec82546127b5565b9050919050565b60008160001c9050919050565b61290981612732565b811461291457600080fd5b50565b61292081612744565b811461292b57600080fd5b50565b6129378161279c565b811461294257600080fd5b5056fea26469706673582212207b2493e1f7a78c057a025a8abe691479ccf591931f6c46577c4b57e2d7500f3f64736f6c63430008000033",
  "immutableReferences": {},
  "source": "// SPDX-License-Identifier: CC0\n\npragma solidity ^0.8.0;\n\nimport \"./verify/IVerifier.sol\";\nimport \"./merkle-tree/MerkleTree.sol\";\n\ncontract AssignShield is MerkleTree {\n\n\n          enum FunctionNames { assign }\n\n          IVerifier private verifier;\n\n          mapping(uint256 => uint256[]) public vks; // indexed to by an enum uint(FunctionNames)\n\n          uint256 public newNullifierRoot;\n\n          mapping(uint256 => uint256) public commitmentRoots;\n\n          uint256 public latestRoot;\n\n          mapping(address => uint256) public zkpPublicKeys;\n\n          struct Inputs {\n            uint nullifierRoot; \n              uint latestNullifierRoot; \n              uint[] newNullifiers;\n                  \n\t\t\t\t\t\tuint commitmentRoot;\n\t\t\t\t\t\tuint[] newCommitments;\n\t\t\t\t\t\tuint[] customInputs;\n          }\n\n\n        constructor (\n      \t\taddress verifierAddress,\n      \t\tuint256[][] memory vk\n      \t) {\n      \t\tverifier = IVerifier(verifierAddress);\n      \t\tfor (uint i = 0; i < vk.length; i++) {\n      \t\t\tvks[i] = vk[i];\n      \t\t}\n\n          newNullifierRoot = Initial_NullifierRoot;\n\n        }\n\n\n        function registerZKPPublicKey(uint256 pk) external {\n      \t\tzkpPublicKeys[msg.sender] = pk;\n      \t}\n        \n\n\n        function verify(\n      \t\tuint256[] calldata proof,\n      \t\tuint256 functionId,\n      \t\tInputs memory _inputs\n      \t) private {\n        \n          uint[] memory customInputs = _inputs.customInputs;\n\n          uint[] memory newNullifiers = _inputs.newNullifiers;\n\n          uint[] memory newCommitments = _inputs.newCommitments;\n\n          require(commitmentRoots[_inputs.commitmentRoot] == _inputs.commitmentRoot, \"Input commitmentRoot does not exist.\");\n\n            uint256[] memory inputs = new uint256[](customInputs.length + newNullifiers.length + (newNullifiers.length > 0 ? 3 : 0) + newCommitments.length);\n          \n          if (functionId == uint(FunctionNames.assign)) {\n            uint k = 0;\n             \n            require(newNullifierRoot == _inputs.nullifierRoot, \"Input NullifierRoot does not exist.\");\n            inputs[k++] = _inputs.nullifierRoot;\n            inputs[k++] = _inputs.latestNullifierRoot;\n            inputs[k++] = newNullifiers[0];\n            inputs[k++] = _inputs.commitmentRoot;\n            inputs[k++] = newCommitments[0];\n            inputs[k++] = 1;\n            \n          }\n          \n          bool result = verifier.verify(proof, inputs, vks[functionId]);\n\n          require(result, \"The proof has not been verified by the contract\");\n\n          if (newCommitments.length > 0) {\n      \t\t\tlatestRoot = insertLeaves(newCommitments);\n      \t\t\tcommitmentRoots[latestRoot] = latestRoot;\n      \t\t}\n\n       if (newNullifiers.length > 0) {\n        newNullifierRoot = _inputs.latestNullifierRoot;\n      }\n        }\n\n\n\n\n\n      function assign (uint256 nullifierRoot, uint256 latestNullifierRoot,uint256[] calldata newNullifiers, uint256 commitmentRoot, uint256[] calldata newCommitments, uint256[] calldata proof) public  {\n\n        \n\n          Inputs memory inputs;\n\n          inputs.customInputs = new uint[](1);\n        \tinputs.customInputs[0] = 1;\n\n          inputs.nullifierRoot = nullifierRoot; \n\n          inputs.latestNullifierRoot = latestNullifierRoot; \n\n          inputs.newNullifiers = newNullifiers;\n           \n\n          inputs.commitmentRoot = commitmentRoot;\n\n          inputs.newCommitments = newCommitments;\n\n           verify(proof, uint(FunctionNames.assign), inputs);\n      }\n}",
  "sourcePath": "/app/contracts/AssignShield.sol",
  "compiler": {
    "name": "solc",
    "version": "0.8.0+commit.c7dfd78e.Emscripten.clang"
  },
  "schemaVersion": "3.3.3",
  "updatedAt": "2024-03-11T18:20:29.464Z",
  "networkType": "ethereum",
  "devdoc": {
    "kind": "dev",
    "methods": {
      "getFrontierSlot(uint256)": {
        "params": {
          "leafIndex": "- the index of the leaf being added"
        },
        "returns": {
          "slot": "- the index of the frontier (or 'storage slot') into which we will next store a nodeValue"
        }
      },
      "insertLeaf(uint256)": {
        "params": {
          "leafValue": "- the value of the leaf being inserted."
        },
        "returns": {
          "root": "- the root of the merkle tree, after the insert."
        }
      },
      "insertLeaves(uint256[])": {
        "params": {
          "leafValues": "- the values of the leaves being inserted."
        },
        "returns": {
          "root": "- the root of the merkle tree, after all the inserts."
        }
      }
    },
    "version": 1
  },
  "userdoc": {
    "events": {
      "NewLeaf(uint256,uint256,uint256)": {
        "notice": "These events are what the merkle-tree microservice's filters will listen for."
      }
    },
    "kind": "user",
    "methods": {
      "getFrontierSlot(uint256)": {
        "notice": "Get the index of the frontier (or 'storage slot') into which we will next store a nodeValue (based on the leafIndex currently being inserted). See the top-level README for a detailed explanation."
      },
      "insertLeaf(uint256)": {
        "notice": "Insert a leaf into the Merkle Tree, update the root, and update any values in the (persistently stored) frontier."
      },
      "insertLeaves(uint256[])": {
        "notice": "Insert multiple leaves into the Merkle Tree, and then update the root, and update any values in the (persistently stored) frontier."
      }
    },
    "version": 1
  }
}